{
  "_format": "hh-sol-artifact-1",
  "contractName": "ICO",
  "sourceName": "contracts/ICO.sol",
  "abi": [
    {
      "anonymous": false,
      "inputs": [
        {
          "indexed": true,
          "internalType": "address",
          "name": "purchaser",
          "type": "address"
        },
        {
          "indexed": false,
          "internalType": "uint256",
          "name": "etherAmount",
          "type": "uint256"
        }
      ],
      "name": "NewInvestment",
      "type": "event"
    },
    {
      "anonymous": false,
      "inputs": [
        {
          "indexed": true,
          "internalType": "enum ICO.Phases",
          "name": "phase",
          "type": "uint8"
        }
      ],
      "name": "NewPhase",
      "type": "event"
    },
    {
      "anonymous": false,
      "inputs": [
        {
          "indexed": true,
          "internalType": "address",
          "name": "previousOwner",
          "type": "address"
        },
        {
          "indexed": true,
          "internalType": "address",
          "name": "newOwner",
          "type": "address"
        }
      ],
      "name": "OwnershipTransferred",
      "type": "event"
    },
    {
      "anonymous": false,
      "inputs": [
        {
          "indexed": true,
          "internalType": "address",
          "name": "refundAddress",
          "type": "address"
        },
        {
          "indexed": false,
          "internalType": "uint256",
          "name": "etherAmount",
          "type": "uint256"
        }
      ],
      "name": "Refund",
      "type": "event"
    },
    {
      "anonymous": false,
      "inputs": [
        {
          "indexed": true,
          "internalType": "address",
          "name": "claimingAddress",
          "type": "address"
        },
        {
          "indexed": false,
          "internalType": "uint256",
          "name": "tokenAmount",
          "type": "uint256"
        }
      ],
      "name": "TokensClaimed",
      "type": "event"
    },
    {
      "inputs": [
        {
          "internalType": "address",
          "name": "",
          "type": "address"
        }
      ],
      "name": "addressToContributions",
      "outputs": [
        {
          "internalType": "uint256",
          "name": "",
          "type": "uint256"
        }
      ],
      "stateMutability": "view",
      "type": "function"
    },
    {
      "inputs": [
        {
          "internalType": "address",
          "name": "",
          "type": "address"
        }
      ],
      "name": "approvedSeedInvestors",
      "outputs": [
        {
          "internalType": "bool",
          "name": "",
          "type": "bool"
        }
      ],
      "stateMutability": "view",
      "type": "function"
    },
    {
      "inputs": [],
      "name": "buyTokens",
      "outputs": [],
      "stateMutability": "payable",
      "type": "function"
    },
    {
      "inputs": [],
      "name": "claimTokens",
      "outputs": [],
      "stateMutability": "nonpayable",
      "type": "function"
    },
    {
      "inputs": [],
      "name": "currentPhase",
      "outputs": [
        {
          "internalType": "enum ICO.Phases",
          "name": "",
          "type": "uint8"
        }
      ],
      "stateMutability": "view",
      "type": "function"
    },
    {
      "inputs": [
        {
          "internalType": "address",
          "name": "_tokenAddress",
          "type": "address"
        }
      ],
      "name": "initialize",
      "outputs": [],
      "stateMutability": "nonpayable",
      "type": "function"
    },
    {
      "inputs": [],
      "name": "isInitialized",
      "outputs": [
        {
          "internalType": "bool",
          "name": "",
          "type": "bool"
        }
      ],
      "stateMutability": "view",
      "type": "function"
    },
    {
      "inputs": [],
      "name": "isPaused",
      "outputs": [
        {
          "internalType": "bool",
          "name": "",
          "type": "bool"
        }
      ],
      "stateMutability": "view",
      "type": "function"
    },
    {
      "inputs": [],
      "name": "owner",
      "outputs": [
        {
          "internalType": "address",
          "name": "",
          "type": "address"
        }
      ],
      "stateMutability": "view",
      "type": "function"
    },
    {
      "inputs": [],
      "name": "progressPhases",
      "outputs": [],
      "stateMutability": "nonpayable",
      "type": "function"
    },
    {
      "inputs": [],
      "name": "renounceOwnership",
      "outputs": [],
      "stateMutability": "nonpayable",
      "type": "function"
    },
    {
      "inputs": [],
      "name": "toggleIsPaused",
      "outputs": [],
      "stateMutability": "nonpayable",
      "type": "function"
    },
    {
      "inputs": [
        {
          "internalType": "address",
          "name": "_seedInvestor",
          "type": "address"
        }
      ],
      "name": "toggleSeedInvestor",
      "outputs": [],
      "stateMutability": "nonpayable",
      "type": "function"
    },
    {
      "inputs": [],
      "name": "tokenAddress",
      "outputs": [
        {
          "internalType": "address",
          "name": "",
          "type": "address"
        }
      ],
      "stateMutability": "view",
      "type": "function"
    },
    {
      "inputs": [],
      "name": "totalContributions",
      "outputs": [
        {
          "internalType": "uint256",
          "name": "",
          "type": "uint256"
        }
      ],
      "stateMutability": "view",
      "type": "function"
    },
    {
      "inputs": [
        {
          "internalType": "address",
          "name": "newOwner",
          "type": "address"
        }
      ],
      "name": "transferOwnership",
      "outputs": [],
      "stateMutability": "nonpayable",
      "type": "function"
    },
    {
      "stateMutability": "payable",
      "type": "receive"
    }
  ],
  "bytecode": "0x608060405260008060146101000a81548160ff021916908360028111156200002c576200002b6200016a565b5b021790555060008060156101000a81548160ff02191690831515021790555060008060166101000a81548160ff02191690831515021790555060006002553480156200007757600080fd5b50620000986200008c6200009e60201b60201c565b620000a660201b60201c565b62000199565b600033905090565b60008060009054906101000a900473ffffffffffffffffffffffffffffffffffffffff169050816000806101000a81548173ffffffffffffffffffffffffffffffffffffffff021916908373ffffffffffffffffffffffffffffffffffffffff1602179055508173ffffffffffffffffffffffffffffffffffffffff168173ffffffffffffffffffffffffffffffffffffffff167f8be0079c531659141344cd1fd0a4f28419497f9722a3daafe3b4186f6b6457e060405160405180910390a35050565b7f4e487b7100000000000000000000000000000000000000000000000000000000600052602160045260246000fd5b61242580620001a96000396000f3fe6080604052600436106100f75760003560e01c8063b187bd261161008a578063e3122c4511610059578063e3122c45146102df578063e7afeeed1461031c578063f2fde38b14610359578063f9613d7f1461038257610137565b8063b187bd261461026a578063c4d66de814610295578063d02ac3c7146102be578063d0febe4c146102d557610137565b80636b783b74116100c65780636b783b74146101d4578063715018a6146101fd5780638da5cb5b146102145780639d76ea581461023f57610137565b8063055ad42e1461013c57806337c0892314610167578063392e53cd1461019257806348c54b9d146101bd57610137565b36610137576040517f08c379a000000000000000000000000000000000000000000000000000000000815260040161012e906119be565b60405180910390fd5b600080fd5b34801561014857600080fd5b50610151610399565b60405161015e9190611a55565b60405180910390f35b34801561017357600080fd5b5061017c6103ac565b6040516101899190611a89565b60405180910390f35b34801561019e57600080fd5b506101a76103b2565b6040516101b49190611abf565b60405180910390f35b3480156101c957600080fd5b506101d26103c5565b005b3480156101e057600080fd5b506101fb60048036038101906101f69190611b3d565b6106a0565b005b34801561020957600080fd5b506102126107c3565b005b34801561022057600080fd5b5061022961084b565b6040516102369190611b79565b60405180910390f35b34801561024b57600080fd5b50610254610874565b6040516102619190611b79565b60405180910390f35b34801561027657600080fd5b5061027f61089a565b60405161028c9190611abf565b60405180910390f35b3480156102a157600080fd5b506102bc60048036038101906102b79190611b3d565b6108ad565b005b3480156102ca57600080fd5b506102d3610a48565b005b6102dd610c42565b005b3480156102eb57600080fd5b5061030660048036038101906103019190611b3d565b61117f565b6040516103139190611abf565b60405180910390f35b34801561032857600080fd5b50610343600480360381019061033e9190611b3d565b61119f565b6040516103509190611a89565b60405180910390f35b34801561036557600080fd5b50610380600480360381019061037b9190611b3d565b6111b7565b005b34801561038e57600080fd5b506103976112af565b005b600060149054906101000a900460ff1681565b60025481565b600060159054906101000a900460ff1681565b600060159054906101000a900460ff16610414576040517f08c379a000000000000000000000000000000000000000000000000000000000815260040161040b90611be0565b60405180910390fd5b600280811115610427576104266119de565b5b600060149054906101000a900460ff166002811115610449576104486119de565b5b14610489576040517f08c379a000000000000000000000000000000000000000000000000000000000815260040161048090611c4c565b60405180910390fd5b6000600360003373ffffffffffffffffffffffffffffffffffffffff1673ffffffffffffffffffffffffffffffffffffffff168152602001908152602001600020541161050b576040517f08c379a000000000000000000000000000000000000000000000000000000000815260040161050290611cde565b60405180910390fd5b60006005600360003373ffffffffffffffffffffffffffffffffffffffff1673ffffffffffffffffffffffffffffffffffffffff168152602001908152602001600020546105599190611d2d565b90506000600160009054906101000a900473ffffffffffffffffffffffffffffffffffffffff1673ffffffffffffffffffffffffffffffffffffffff1663a9059cbb33846040518363ffffffff1660e01b81526004016105ba929190611d87565b602060405180830381600087803b1580156105d457600080fd5b505af11580156105e8573d6000803e3d6000fd5b505050506040513d601f19601f8201168201806040525081019061060c9190611ddc565b90508061064e576040517f08c379a000000000000000000000000000000000000000000000000000000000815260040161064590611e55565b60405180910390fd5b3373ffffffffffffffffffffffffffffffffffffffff167f896e034966eaaf1adc54acc0f257056febbd300c9e47182cf761982cf1f5e430836040516106949190611a89565b60405180910390a25050565b6106a8611357565b73ffffffffffffffffffffffffffffffffffffffff166106c661084b565b73ffffffffffffffffffffffffffffffffffffffff161461071c576040517f08c379a000000000000000000000000000000000000000000000000000000000815260040161071390611ec1565b60405180910390fd5b600460008273ffffffffffffffffffffffffffffffffffffffff1673ffffffffffffffffffffffffffffffffffffffff16815260200190815260200160002060009054906101000a900460ff1615600460008373ffffffffffffffffffffffffffffffffffffffff1673ffffffffffffffffffffffffffffffffffffffff16815260200190815260200160002060006101000a81548160ff02191690831515021790555050565b6107cb611357565b73ffffffffffffffffffffffffffffffffffffffff166107e961084b565b73ffffffffffffffffffffffffffffffffffffffff161461083f576040517f08c379a000000000000000000000000000000000000000000000000000000000815260040161083690611ec1565b60405180910390fd5b610849600061135f565b565b60008060009054906101000a900473ffffffffffffffffffffffffffffffffffffffff16905090565b600160009054906101000a900473ffffffffffffffffffffffffffffffffffffffff1681565b600060169054906101000a900460ff1681565b6108b5611357565b73ffffffffffffffffffffffffffffffffffffffff166108d361084b565b73ffffffffffffffffffffffffffffffffffffffff1614610929576040517f08c379a000000000000000000000000000000000000000000000000000000000815260040161092090611ec1565b60405180910390fd5b600060159054906101000a900460ff1615610979576040517f08c379a000000000000000000000000000000000000000000000000000000000815260040161097090611f2d565b60405180910390fd5b600073ffffffffffffffffffffffffffffffffffffffff168173ffffffffffffffffffffffffffffffffffffffff1614156109e9576040517f08c379a00000000000000000000000000000000000000000000000000000000081526004016109e090611f99565b60405180910390fd5b80600160006101000a81548173ffffffffffffffffffffffffffffffffffffffff021916908373ffffffffffffffffffffffffffffffffffffffff1602179055506001600060156101000a81548160ff02191690831515021790555050565b610a50611357565b73ffffffffffffffffffffffffffffffffffffffff16610a6e61084b565b73ffffffffffffffffffffffffffffffffffffffff1614610ac4576040517f08c379a0000000000000000000000000000000000000000000000000000000008152600401610abb90611ec1565b60405180910390fd5b600060159054906101000a900460ff16610b13576040517f08c379a0000000000000000000000000000000000000000000000000000000008152600401610b0a90611be0565b60405180910390fd5b600280811115610b2657610b256119de565b5b600060149054906101000a900460ff166002811115610b4857610b476119de565b5b1415610b89576040517f08c379a0000000000000000000000000000000000000000000000000000000008152600401610b8090612005565b60405180910390fd5b6001600060149054906101000a900460ff166002811115610bad57610bac6119de565b5b610bb79190612025565b6002811115610bc957610bc86119de565b5b600060146101000a81548160ff02191690836002811115610bed57610bec6119de565b5b0217905550600060149054906101000a900460ff166002811115610c1457610c136119de565b5b7f31f72b44f546d9e7eaec13f65636997665e15f134a81c82924f568f5c0d07b9360405160405180910390a2565b600060159054906101000a900460ff16610c91576040517f08c379a0000000000000000000000000000000000000000000000000000000008152600401610c8890611be0565b60405180910390fd5b600060169054906101000a900460ff1615610ce1576040517f08c379a0000000000000000000000000000000000000000000000000000000008152600401610cd8906120c7565b60405180910390fd5b60006002811115610cf557610cf46119de565b5b600060149054906101000a900460ff166002811115610d1757610d166119de565b5b1415610e865769032d26d12e980b60000060025410610d6b576040517f08c379a0000000000000000000000000000000000000000000000000000000008152600401610d6290612133565b60405180910390fd5b685150ae84a8cdf00000600360003373ffffffffffffffffffffffffffffffffffffffff1673ffffffffffffffffffffffffffffffffffffffff1681526020019081526020016000205410610df5576040517f08c379a0000000000000000000000000000000000000000000000000000000008152600401610dec906121c5565b60405180910390fd5b600460003373ffffffffffffffffffffffffffffffffffffffff1673ffffffffffffffffffffffffffffffffffffffff16815260200190815260200160002060009054906101000a900460ff16610e81576040517f08c379a0000000000000000000000000000000000000000000000000000000008152600401610e7890612231565b60405180910390fd5b610f9c565b60016002811115610e9a57610e996119de565b5b600060149054906101000a900460ff166002811115610ebc57610ebb6119de565b5b1415610f9b5769065a4da25d3016c0000060025410610f10576040517f08c379a0000000000000000000000000000000000000000000000000000000008152600401610f0790612133565b60405180910390fd5b683635c9adc5dea00000600360003373ffffffffffffffffffffffffffffffffffffffff1673ffffffffffffffffffffffffffffffffffffffff1681526020019081526020016000205410610f9a576040517f08c379a0000000000000000000000000000000000000000000000000000000008152600401610f91906121c5565b60405180910390fd5b5b5b6000610fa734611423565b905060008134610fb79190612251565b905080600360003373ffffffffffffffffffffffffffffffffffffffff1673ffffffffffffffffffffffffffffffffffffffff16815260200190815260200160002060008282546110089190612025565b9250508190555080600260008282546110219190612025565b92505081905550600082111561112d5760003373ffffffffffffffffffffffffffffffffffffffff1683604051611057906122b6565b60006040518083038185875af1925050503d8060008114611094576040519150601f19603f3d011682016040523d82523d6000602084013e611099565b606091505b50509050806110dd576040517f08c379a00000000000000000000000000000000000000000000000000000000081526004016110d49061233d565b60405180910390fd5b3373ffffffffffffffffffffffffffffffffffffffff167fbb28353e4598c3b9199101a66e0989549b659a59a54d2c27fbb183f1932c8e6d846040516111239190611a89565b60405180910390a2505b3373ffffffffffffffffffffffffffffffffffffffff167f8a7eaad672c52c2966090bc8f26a335bf67d8d1d442189f2f7e430c26aab99ec826040516111739190611a89565b60405180910390a25050565b60046020528060005260406000206000915054906101000a900460ff1681565b60036020528060005260406000206000915090505481565b6111bf611357565b73ffffffffffffffffffffffffffffffffffffffff166111dd61084b565b73ffffffffffffffffffffffffffffffffffffffff1614611233576040517f08c379a000000000000000000000000000000000000000000000000000000000815260040161122a90611ec1565b60405180910390fd5b600073ffffffffffffffffffffffffffffffffffffffff168173ffffffffffffffffffffffffffffffffffffffff1614156112a3576040517f08c379a000000000000000000000000000000000000000000000000000000000815260040161129a906123cf565b60405180910390fd5b6112ac8161135f565b50565b6112b7611357565b73ffffffffffffffffffffffffffffffffffffffff166112d561084b565b73ffffffffffffffffffffffffffffffffffffffff161461132b576040517f08c379a000000000000000000000000000000000000000000000000000000000815260040161132290611ec1565b60405180910390fd5b600060169054906101000a900460ff1615600060166101000a81548160ff021916908315150217905550565b600033905090565b60008060009054906101000a900473ffffffffffffffffffffffffffffffffffffffff169050816000806101000a81548173ffffffffffffffffffffffffffffffffffffffff021916908373ffffffffffffffffffffffffffffffffffffffff1602179055508173ffffffffffffffffffffffffffffffffffffffff168173ffffffffffffffffffffffffffffffffffffffff167f8be0079c531659141344cd1fd0a4f28419497f9722a3daafe3b4186f6b6457e060405160405180910390a35050565b60008060159054906101000a900460ff16611473576040517f08c379a000000000000000000000000000000000000000000000000000000000815260040161146a90611be0565b60405180910390fd5b60006002811115611487576114866119de565b5b600060149054906101000a900460ff1660028111156114a9576114a86119de565b5b14156116185769032d26d12e980b600000600254106114fd576040517f08c379a00000000000000000000000000000000000000000000000000000000081526004016114f490612133565b60405180910390fd5b685150ae84a8cdf00000600360003373ffffffffffffffffffffffffffffffffffffffff1673ffffffffffffffffffffffffffffffffffffffff1681526020019081526020016000205410611587576040517f08c379a000000000000000000000000000000000000000000000000000000000815260040161157e906121c5565b60405180910390fd5b600460003373ffffffffffffffffffffffffffffffffffffffff1673ffffffffffffffffffffffffffffffffffffffff16815260200190815260200160002060009054906101000a900460ff16611613576040517f08c379a000000000000000000000000000000000000000000000000000000000815260040161160a90612231565b60405180910390fd5b61172e565b6001600281111561162c5761162b6119de565b5b600060149054906101000a900460ff16600281111561164e5761164d6119de565b5b141561172d5769065a4da25d3016c00000600254106116a2576040517f08c379a000000000000000000000000000000000000000000000000000000000815260040161169990612133565b60405180910390fd5b683635c9adc5dea00000600360003373ffffffffffffffffffffffffffffffffffffffff1673ffffffffffffffffffffffffffffffffffffffff168152602001908152602001600020541061172c576040517f08c379a0000000000000000000000000000000000000000000000000000000008152600401611723906121c5565b60405180910390fd5b5b5b6000600360003373ffffffffffffffffffffffffffffffffffffffff1673ffffffffffffffffffffffffffffffffffffffff168152602001908152602001600020549050600083826117809190612025565b90506000846002546117929190612025565b9050600060028111156117a8576117a76119de565b5b600060149054906101000a900460ff1660028111156117ca576117c96119de565b5b1480156117df5750685150ae84a8cdf0000082115b1561180357685150ae84a8cdf00000826117f99190612251565b935050505061195c565b60006002811115611817576118166119de565b5b600060149054906101000a900460ff166002811115611839576118386119de565b5b14801561184f575069032d26d12e980b60000081115b156118745769032d26d12e980b6000008161186a9190612251565b935050505061195c565b60016002811115611888576118876119de565b5b600060149054906101000a900460ff1660028111156118aa576118a96119de565b5b1480156118bf5750683635c9adc5dea0000082115b156118e357683635c9adc5dea00000826118d99190612251565b935050505061195c565b600160028111156118f7576118f66119de565b5b600060149054906101000a900460ff166002811115611919576119186119de565b5b14801561192f575069065a4da25d3016c0000081115b156119545769065a4da25d3016c000008161194a9190612251565b935050505061195c565b600093505050505b919050565b600082825260208201905092915050565b7f49434f3a2075736520627579546f6b656e732066756e6374696f6e0000000000600082015250565b60006119a8601b83611961565b91506119b382611972565b602082019050919050565b600060208201905081810360008301526119d78161199b565b9050919050565b7f4e487b7100000000000000000000000000000000000000000000000000000000600052602160045260246000fd5b60038110611a1e57611a1d6119de565b5b50565b6000819050611a2f82611a0d565b919050565b6000611a3f82611a21565b9050919050565b611a4f81611a34565b82525050565b6000602082019050611a6a6000830184611a46565b92915050565b6000819050919050565b611a8381611a70565b82525050565b6000602082019050611a9e6000830184611a7a565b92915050565b60008115159050919050565b611ab981611aa4565b82525050565b6000602082019050611ad46000830184611ab0565b92915050565b600080fd5b600073ffffffffffffffffffffffffffffffffffffffff82169050919050565b6000611b0a82611adf565b9050919050565b611b1a81611aff565b8114611b2557600080fd5b50565b600081359050611b3781611b11565b92915050565b600060208284031215611b5357611b52611ada565b5b6000611b6184828501611b28565b91505092915050565b611b7381611aff565b82525050565b6000602082019050611b8e6000830184611b6a565b92915050565b7f49434f3a206e6f7420696e697469616c697a6564000000000000000000000000600082015250565b6000611bca601483611961565b9150611bd582611b94565b602082019050919050565b60006020820190508181036000830152611bf981611bbd565b9050919050565b7f49434f3a206e6f74206f70656e20706861736500000000000000000000000000600082015250565b6000611c36601383611961565b9150611c4182611c00565b602082019050919050565b60006020820190508181036000830152611c6581611c29565b9050919050565b7f49434f3a206164647265737320686173206e6f20636f6e747269627574696f6e60008201527f7300000000000000000000000000000000000000000000000000000000000000602082015250565b6000611cc8602183611961565b9150611cd382611c6c565b604082019050919050565b60006020820190508181036000830152611cf781611cbb565b9050919050565b7f4e487b7100000000000000000000000000000000000000000000000000000000600052601160045260246000fd5b6000611d3882611a70565b9150611d4383611a70565b9250817fffffffffffffffffffffffffffffffffffffffffffffffffffffffffffffffff0483118215151615611d7c57611d7b611cfe565b5b828202905092915050565b6000604082019050611d9c6000830185611b6a565b611da96020830184611a7a565b9392505050565b611db981611aa4565b8114611dc457600080fd5b50565b600081519050611dd681611db0565b92915050565b600060208284031215611df257611df1611ada565b5b6000611e0084828501611dc7565b91505092915050565b7f49434f3a20746f6b656e7320636f756c64206e6f7420626520636c61696d6564600082015250565b6000611e3f602083611961565b9150611e4a82611e09565b602082019050919050565b60006020820190508181036000830152611e6e81611e32565b9050919050565b7f4f776e61626c653a2063616c6c6572206973206e6f7420746865206f776e6572600082015250565b6000611eab602083611961565b9150611eb682611e75565b602082019050919050565b60006020820190508181036000830152611eda81611e9e565b9050919050565b7f49434f3a20686173206265656e20696e697469616c697a656400000000000000600082015250565b6000611f17601983611961565b9150611f2282611ee1565b602082019050919050565b60006020820190508181036000830152611f4681611f0a565b9050919050565b7f49434f3a2061646472657373206d7573742062652076616c6964000000000000600082015250565b6000611f83601a83611961565b9150611f8e82611f4d565b602082019050919050565b60006020820190508181036000830152611fb281611f76565b9050919050565b7f49434f3a2070686173657320636f6d706c657465000000000000000000000000600082015250565b6000611fef601483611961565b9150611ffa82611fb9565b602082019050919050565b6000602082019050818103600083015261201e81611fe2565b9050919050565b600061203082611a70565b915061203b83611a70565b9250827fffffffffffffffffffffffffffffffffffffffffffffffffffffffffffffffff038211156120705761206f611cfe565b5b828201905092915050565b7f49434f3a207468652049434f2069732070617573656400000000000000000000600082015250565b60006120b1601683611961565b91506120bc8261207b565b602082019050919050565b600060208201905081810360008301526120e0816120a4565b9050919050565b7f49434f3a20706861736520636f6e747269627574696f6e732072656163686564600082015250565b600061211d602083611961565b9150612128826120e7565b602082019050919050565b6000602082019050818103600083015261214c81612110565b9050919050565b7f49434f3a20636f6e747269627574696f6e206d6178696d756d2072656163686560008201527f6400000000000000000000000000000000000000000000000000000000000000602082015250565b60006121af602183611961565b91506121ba82612153565b604082019050919050565b600060208201905081810360008301526121de816121a2565b9050919050565b7f49434f3a2061646472657373206973206e6f7420617070726f76656400000000600082015250565b600061221b601c83611961565b9150612226826121e5565b602082019050919050565b6000602082019050818103600083015261224a8161220e565b9050919050565b600061225c82611a70565b915061226783611a70565b92508282101561227a57612279611cfe565b5b828203905092915050565b600081905092915050565b50565b60006122a0600083612285565b91506122ab82612290565b600082019050919050565b60006122c182612293565b9150819050919050565b7f49434f3a206578636573732066756e6473207472616e73666572206661696c6560008201527f6400000000000000000000000000000000000000000000000000000000000000602082015250565b6000612327602183611961565b9150612332826122cb565b604082019050919050565b600060208201905081810360008301526123568161231a565b9050919050565b7f4f776e61626c653a206e6577206f776e657220697320746865207a65726f206160008201527f6464726573730000000000000000000000000000000000000000000000000000602082015250565b60006123b9602683611961565b91506123c48261235d565b604082019050919050565b600060208201905081810360008301526123e8816123ac565b905091905056fea2646970667358221220872f4efb4e987a8333d93b31f20952914a87145b71d9284601bcf7bc9d8592c164736f6c63430008090033",
  "linkReferences": {},
  "deployedLinkReferences": {}
}