{
  "_format": "hh-sol-artifact-1",
  "contractName": "ICO",
  "sourceName": "contracts/ICO.sol",
  "abi": [
    {
      "anonymous": false,
      "inputs": [
        {
          "indexed": true,
          "internalType": "address",
          "name": "purchaser",
          "type": "address"
        },
        {
          "indexed": false,
          "internalType": "uint256",
          "name": "etherAmount",
          "type": "uint256"
        }
      ],
      "name": "NewInvestment",
      "type": "event"
    },
    {
      "anonymous": false,
      "inputs": [
        {
          "indexed": true,
          "internalType": "enum ICO.Phases",
          "name": "phase",
          "type": "uint8"
        }
      ],
      "name": "NewPhase",
      "type": "event"
    },
    {
      "anonymous": false,
      "inputs": [
        {
          "indexed": true,
          "internalType": "address",
          "name": "previousOwner",
          "type": "address"
        },
        {
          "indexed": true,
          "internalType": "address",
          "name": "newOwner",
          "type": "address"
        }
      ],
      "name": "OwnershipTransferred",
      "type": "event"
    },
    {
      "anonymous": false,
      "inputs": [
        {
          "indexed": true,
          "internalType": "address",
          "name": "refundAddress",
          "type": "address"
        },
        {
          "indexed": false,
          "internalType": "uint256",
          "name": "etherAmount",
          "type": "uint256"
        }
      ],
      "name": "Refund",
      "type": "event"
    },
    {
      "anonymous": false,
      "inputs": [
        {
          "indexed": true,
          "internalType": "address",
          "name": "claimingAddress",
          "type": "address"
        },
        {
          "indexed": false,
          "internalType": "uint256",
          "name": "tokenAmount",
          "type": "uint256"
        }
      ],
      "name": "TokensClaimed",
      "type": "event"
    },
    {
      "inputs": [
        {
          "internalType": "address",
          "name": "",
          "type": "address"
        }
      ],
      "name": "addressToContributions",
      "outputs": [
        {
          "internalType": "uint256",
          "name": "",
          "type": "uint256"
        }
      ],
      "stateMutability": "view",
      "type": "function"
    },
    {
      "inputs": [
        {
          "internalType": "address",
          "name": "",
          "type": "address"
        }
      ],
      "name": "approvedSeedInvestors",
      "outputs": [
        {
          "internalType": "bool",
          "name": "",
          "type": "bool"
        }
      ],
      "stateMutability": "view",
      "type": "function"
    },
    {
      "inputs": [],
      "name": "buyTokens",
      "outputs": [],
      "stateMutability": "payable",
      "type": "function"
    },
    {
      "inputs": [],
      "name": "claimTokens",
      "outputs": [],
      "stateMutability": "nonpayable",
      "type": "function"
    },
    {
      "inputs": [],
      "name": "currentPhase",
      "outputs": [
        {
          "internalType": "enum ICO.Phases",
          "name": "",
          "type": "uint8"
        }
      ],
      "stateMutability": "view",
      "type": "function"
    },
    {
      "inputs": [
        {
          "internalType": "address",
          "name": "_tokenAddress",
          "type": "address"
        }
      ],
      "name": "initialize",
      "outputs": [],
      "stateMutability": "nonpayable",
      "type": "function"
    },
    {
      "inputs": [],
      "name": "isInitialized",
      "outputs": [
        {
          "internalType": "bool",
          "name": "",
          "type": "bool"
        }
      ],
      "stateMutability": "view",
      "type": "function"
    },
    {
      "inputs": [],
      "name": "isPaused",
      "outputs": [
        {
          "internalType": "bool",
          "name": "",
          "type": "bool"
        }
      ],
      "stateMutability": "view",
      "type": "function"
    },
    {
      "inputs": [],
      "name": "owner",
      "outputs": [
        {
          "internalType": "address",
          "name": "",
          "type": "address"
        }
      ],
      "stateMutability": "view",
      "type": "function"
    },
    {
      "inputs": [],
      "name": "progressPhases",
      "outputs": [],
      "stateMutability": "nonpayable",
      "type": "function"
    },
    {
      "inputs": [],
      "name": "renounceOwnership",
      "outputs": [],
      "stateMutability": "nonpayable",
      "type": "function"
    },
    {
      "inputs": [],
      "name": "toggleIsPaused",
      "outputs": [],
      "stateMutability": "nonpayable",
      "type": "function"
    },
    {
      "inputs": [
        {
          "internalType": "address",
          "name": "_seedInvestor",
          "type": "address"
        }
      ],
      "name": "toggleSeedInvestor",
      "outputs": [],
      "stateMutability": "nonpayable",
      "type": "function"
    },
    {
      "inputs": [],
      "name": "tokenAddress",
      "outputs": [
        {
          "internalType": "address",
          "name": "",
          "type": "address"
        }
      ],
      "stateMutability": "view",
      "type": "function"
    },
    {
      "inputs": [],
      "name": "totalContributions",
      "outputs": [
        {
          "internalType": "uint256",
          "name": "",
          "type": "uint256"
        }
      ],
      "stateMutability": "view",
      "type": "function"
    },
    {
      "inputs": [
        {
          "internalType": "address",
          "name": "newOwner",
          "type": "address"
        }
      ],
      "name": "transferOwnership",
      "outputs": [],
      "stateMutability": "nonpayable",
      "type": "function"
    },
    {
      "stateMutability": "payable",
      "type": "receive"
    }
  ],
  "bytecode": "0x608060405260008060146101000a81548160ff021916908360028111156200002c576200002b6200016a565b5b021790555060008060156101000a81548160ff02191690831515021790555060008060166101000a81548160ff02191690831515021790555060006002553480156200007757600080fd5b50620000986200008c6200009e60201b60201c565b620000a660201b60201c565b62000199565b600033905090565b60008060009054906101000a900473ffffffffffffffffffffffffffffffffffffffff169050816000806101000a81548173ffffffffffffffffffffffffffffffffffffffff021916908373ffffffffffffffffffffffffffffffffffffffff1602179055508173ffffffffffffffffffffffffffffffffffffffff168173ffffffffffffffffffffffffffffffffffffffff167f8be0079c531659141344cd1fd0a4f28419497f9722a3daafe3b4186f6b6457e060405160405180910390a35050565b7f4e487b7100000000000000000000000000000000000000000000000000000000600052602160045260246000fd5b61236980620001a96000396000f3fe6080604052600436106100f75760003560e01c8063b187bd261161008a578063e3122c4511610059578063e3122c45146102df578063e7afeeed1461031c578063f2fde38b14610359578063f9613d7f1461038257610137565b8063b187bd261461026a578063c4d66de814610295578063d02ac3c7146102be578063d0febe4c146102d557610137565b80636b783b74116100c65780636b783b74146101d4578063715018a6146101fd5780638da5cb5b146102145780639d76ea581461023f57610137565b8063055ad42e1461013c57806337c0892314610167578063392e53cd1461019257806348c54b9d146101bd57610137565b36610137576040517f08c379a000000000000000000000000000000000000000000000000000000000815260040161012e9061196e565b60405180910390fd5b600080fd5b34801561014857600080fd5b50610151610399565b60405161015e9190611a05565b60405180910390f35b34801561017357600080fd5b5061017c6103ac565b6040516101899190611a39565b60405180910390f35b34801561019e57600080fd5b506101a76103b2565b6040516101b49190611a6f565b60405180910390f35b3480156101c957600080fd5b506101d26103c5565b005b3480156101e057600080fd5b506101fb60048036038101906101f69190611aed565b6106a0565b005b34801561020957600080fd5b506102126107c3565b005b34801561022057600080fd5b5061022961084b565b6040516102369190611b29565b60405180910390f35b34801561024b57600080fd5b50610254610874565b6040516102619190611b29565b60405180910390f35b34801561027657600080fd5b5061027f61089a565b60405161028c9190611a6f565b60405180910390f35b3480156102a157600080fd5b506102bc60048036038101906102b79190611aed565b6108ad565b005b3480156102ca57600080fd5b506102d36109f8565b005b6102dd610bf2565b005b3480156102eb57600080fd5b5061030660048036038101906103019190611aed565b61112f565b6040516103139190611a6f565b60405180910390f35b34801561032857600080fd5b50610343600480360381019061033e9190611aed565b61114f565b6040516103509190611a39565b60405180910390f35b34801561036557600080fd5b50610380600480360381019061037b9190611aed565b611167565b005b34801561038e57600080fd5b5061039761125f565b005b600060149054906101000a900460ff1681565b60025481565b600060159054906101000a900460ff1681565b600060159054906101000a900460ff16610414576040517f08c379a000000000000000000000000000000000000000000000000000000000815260040161040b90611b90565b60405180910390fd5b6002808111156104275761042661198e565b5b600060149054906101000a900460ff1660028111156104495761044861198e565b5b14610489576040517f08c379a000000000000000000000000000000000000000000000000000000000815260040161048090611bfc565b60405180910390fd5b6000600360003373ffffffffffffffffffffffffffffffffffffffff1673ffffffffffffffffffffffffffffffffffffffff168152602001908152602001600020541161050b576040517f08c379a000000000000000000000000000000000000000000000000000000000815260040161050290611c8e565b60405180910390fd5b60006005600360003373ffffffffffffffffffffffffffffffffffffffff1673ffffffffffffffffffffffffffffffffffffffff168152602001908152602001600020546105599190611cdd565b90506000600160009054906101000a900473ffffffffffffffffffffffffffffffffffffffff1673ffffffffffffffffffffffffffffffffffffffff1663a9059cbb33846040518363ffffffff1660e01b81526004016105ba929190611d37565b602060405180830381600087803b1580156105d457600080fd5b505af11580156105e8573d6000803e3d6000fd5b505050506040513d601f19601f8201168201806040525081019061060c9190611d8c565b90508061064e576040517f08c379a000000000000000000000000000000000000000000000000000000000815260040161064590611e05565b60405180910390fd5b3373ffffffffffffffffffffffffffffffffffffffff167f896e034966eaaf1adc54acc0f257056febbd300c9e47182cf761982cf1f5e430836040516106949190611a39565b60405180910390a25050565b6106a8611307565b73ffffffffffffffffffffffffffffffffffffffff166106c661084b565b73ffffffffffffffffffffffffffffffffffffffff161461071c576040517f08c379a000000000000000000000000000000000000000000000000000000000815260040161071390611e71565b60405180910390fd5b600460008273ffffffffffffffffffffffffffffffffffffffff1673ffffffffffffffffffffffffffffffffffffffff16815260200190815260200160002060009054906101000a900460ff1615600460008373ffffffffffffffffffffffffffffffffffffffff1673ffffffffffffffffffffffffffffffffffffffff16815260200190815260200160002060006101000a81548160ff02191690831515021790555050565b6107cb611307565b73ffffffffffffffffffffffffffffffffffffffff166107e961084b565b73ffffffffffffffffffffffffffffffffffffffff161461083f576040517f08c379a000000000000000000000000000000000000000000000000000000000815260040161083690611e71565b60405180910390fd5b610849600061130f565b565b60008060009054906101000a900473ffffffffffffffffffffffffffffffffffffffff16905090565b600160009054906101000a900473ffffffffffffffffffffffffffffffffffffffff1681565b600060169054906101000a900460ff1681565b6108b5611307565b73ffffffffffffffffffffffffffffffffffffffff166108d361084b565b73ffffffffffffffffffffffffffffffffffffffff1614610929576040517f08c379a000000000000000000000000000000000000000000000000000000000815260040161092090611e71565b60405180910390fd5b600073ffffffffffffffffffffffffffffffffffffffff168173ffffffffffffffffffffffffffffffffffffffff161415610999576040517f08c379a000000000000000000000000000000000000000000000000000000000815260040161099090611edd565b60405180910390fd5b80600160006101000a81548173ffffffffffffffffffffffffffffffffffffffff021916908373ffffffffffffffffffffffffffffffffffffffff1602179055506001600060156101000a81548160ff02191690831515021790555050565b610a00611307565b73ffffffffffffffffffffffffffffffffffffffff16610a1e61084b565b73ffffffffffffffffffffffffffffffffffffffff1614610a74576040517f08c379a0000000000000000000000000000000000000000000000000000000008152600401610a6b90611e71565b60405180910390fd5b600060159054906101000a900460ff16610ac3576040517f08c379a0000000000000000000000000000000000000000000000000000000008152600401610aba90611b90565b60405180910390fd5b600280811115610ad657610ad561198e565b5b600060149054906101000a900460ff166002811115610af857610af761198e565b5b1415610b39576040517f08c379a0000000000000000000000000000000000000000000000000000000008152600401610b3090611f49565b60405180910390fd5b6001600060149054906101000a900460ff166002811115610b5d57610b5c61198e565b5b610b679190611f69565b6002811115610b7957610b7861198e565b5b600060146101000a81548160ff02191690836002811115610b9d57610b9c61198e565b5b0217905550600060149054906101000a900460ff166002811115610bc457610bc361198e565b5b7f31f72b44f546d9e7eaec13f65636997665e15f134a81c82924f568f5c0d07b9360405160405180910390a2565b600060159054906101000a900460ff16610c41576040517f08c379a0000000000000000000000000000000000000000000000000000000008152600401610c3890611b90565b60405180910390fd5b600060169054906101000a900460ff1615610c91576040517f08c379a0000000000000000000000000000000000000000000000000000000008152600401610c889061200b565b60405180910390fd5b60006002811115610ca557610ca461198e565b5b600060149054906101000a900460ff166002811115610cc757610cc661198e565b5b1415610e365769032d26d12e980b60000060025410610d1b576040517f08c379a0000000000000000000000000000000000000000000000000000000008152600401610d1290612077565b60405180910390fd5b685150ae84a8cdf00000600360003373ffffffffffffffffffffffffffffffffffffffff1673ffffffffffffffffffffffffffffffffffffffff1681526020019081526020016000205410610da5576040517f08c379a0000000000000000000000000000000000000000000000000000000008152600401610d9c90612109565b60405180910390fd5b600460003373ffffffffffffffffffffffffffffffffffffffff1673ffffffffffffffffffffffffffffffffffffffff16815260200190815260200160002060009054906101000a900460ff16610e31576040517f08c379a0000000000000000000000000000000000000000000000000000000008152600401610e2890612175565b60405180910390fd5b610f4c565b60016002811115610e4a57610e4961198e565b5b600060149054906101000a900460ff166002811115610e6c57610e6b61198e565b5b1415610f4b5769065a4da25d3016c0000060025410610ec0576040517f08c379a0000000000000000000000000000000000000000000000000000000008152600401610eb790612077565b60405180910390fd5b683635c9adc5dea00000600360003373ffffffffffffffffffffffffffffffffffffffff1673ffffffffffffffffffffffffffffffffffffffff1681526020019081526020016000205410610f4a576040517f08c379a0000000000000000000000000000000000000000000000000000000008152600401610f4190612109565b60405180910390fd5b5b5b6000610f57346113d3565b905060008134610f679190612195565b905080600360003373ffffffffffffffffffffffffffffffffffffffff1673ffffffffffffffffffffffffffffffffffffffff1681526020019081526020016000206000828254610fb89190611f69565b925050819055508060026000828254610fd19190611f69565b9250508190555060008211156110dd5760003373ffffffffffffffffffffffffffffffffffffffff1683604051611007906121fa565b60006040518083038185875af1925050503d8060008114611044576040519150601f19603f3d011682016040523d82523d6000602084013e611049565b606091505b505090508061108d576040517f08c379a000000000000000000000000000000000000000000000000000000000815260040161108490612281565b60405180910390fd5b3373ffffffffffffffffffffffffffffffffffffffff167fbb28353e4598c3b9199101a66e0989549b659a59a54d2c27fbb183f1932c8e6d846040516110d39190611a39565b60405180910390a2505b3373ffffffffffffffffffffffffffffffffffffffff167f8a7eaad672c52c2966090bc8f26a335bf67d8d1d442189f2f7e430c26aab99ec826040516111239190611a39565b60405180910390a25050565b60046020528060005260406000206000915054906101000a900460ff1681565b60036020528060005260406000206000915090505481565b61116f611307565b73ffffffffffffffffffffffffffffffffffffffff1661118d61084b565b73ffffffffffffffffffffffffffffffffffffffff16146111e3576040517f08c379a00000000000000000000000000000000000000000000000000000000081526004016111da90611e71565b60405180910390fd5b600073ffffffffffffffffffffffffffffffffffffffff168173ffffffffffffffffffffffffffffffffffffffff161415611253576040517f08c379a000000000000000000000000000000000000000000000000000000000815260040161124a90612313565b60405180910390fd5b61125c8161130f565b50565b611267611307565b73ffffffffffffffffffffffffffffffffffffffff1661128561084b565b73ffffffffffffffffffffffffffffffffffffffff16146112db576040517f08c379a00000000000000000000000000000000000000000000000000000000081526004016112d290611e71565b60405180910390fd5b600060169054906101000a900460ff1615600060166101000a81548160ff021916908315150217905550565b600033905090565b60008060009054906101000a900473ffffffffffffffffffffffffffffffffffffffff169050816000806101000a81548173ffffffffffffffffffffffffffffffffffffffff021916908373ffffffffffffffffffffffffffffffffffffffff1602179055508173ffffffffffffffffffffffffffffffffffffffff168173ffffffffffffffffffffffffffffffffffffffff167f8be0079c531659141344cd1fd0a4f28419497f9722a3daafe3b4186f6b6457e060405160405180910390a35050565b60008060159054906101000a900460ff16611423576040517f08c379a000000000000000000000000000000000000000000000000000000000815260040161141a90611b90565b60405180910390fd5b600060028111156114375761143661198e565b5b600060149054906101000a900460ff1660028111156114595761145861198e565b5b14156115c85769032d26d12e980b600000600254106114ad576040517f08c379a00000000000000000000000000000000000000000000000000000000081526004016114a490612077565b60405180910390fd5b685150ae84a8cdf00000600360003373ffffffffffffffffffffffffffffffffffffffff1673ffffffffffffffffffffffffffffffffffffffff1681526020019081526020016000205410611537576040517f08c379a000000000000000000000000000000000000000000000000000000000815260040161152e90612109565b60405180910390fd5b600460003373ffffffffffffffffffffffffffffffffffffffff1673ffffffffffffffffffffffffffffffffffffffff16815260200190815260200160002060009054906101000a900460ff166115c3576040517f08c379a00000000000000000000000000000000000000000000000000000000081526004016115ba90612175565b60405180910390fd5b6116de565b600160028111156115dc576115db61198e565b5b600060149054906101000a900460ff1660028111156115fe576115fd61198e565b5b14156116dd5769065a4da25d3016c0000060025410611652576040517f08c379a000000000000000000000000000000000000000000000000000000000815260040161164990612077565b60405180910390fd5b683635c9adc5dea00000600360003373ffffffffffffffffffffffffffffffffffffffff1673ffffffffffffffffffffffffffffffffffffffff16815260200190815260200160002054106116dc576040517f08c379a00000000000000000000000000000000000000000000000000000000081526004016116d390612109565b60405180910390fd5b5b5b6000600360003373ffffffffffffffffffffffffffffffffffffffff1673ffffffffffffffffffffffffffffffffffffffff168152602001908152602001600020549050600083826117309190611f69565b90506000846002546117429190611f69565b9050600060028111156117585761175761198e565b5b600060149054906101000a900460ff16600281111561177a5761177961198e565b5b14801561178f5750685150ae84a8cdf0000082115b156117b357685150ae84a8cdf00000826117a99190612195565b935050505061190c565b600060028111156117c7576117c661198e565b5b600060149054906101000a900460ff1660028111156117e9576117e861198e565b5b1480156117ff575069032d26d12e980b60000081115b156118245769032d26d12e980b6000008161181a9190612195565b935050505061190c565b600160028111156118385761183761198e565b5b600060149054906101000a900460ff16600281111561185a5761185961198e565b5b14801561186f5750683635c9adc5dea0000082115b1561189357683635c9adc5dea00000826118899190612195565b935050505061190c565b600160028111156118a7576118a661198e565b5b600060149054906101000a900460ff1660028111156118c9576118c861198e565b5b1480156118df575069065a4da25d3016c0000081115b156119045769065a4da25d3016c00000816118fa9190612195565b935050505061190c565b600093505050505b919050565b600082825260208201905092915050565b7f49434f3a2075736520627579546f6b656e732066756e6374696f6e0000000000600082015250565b6000611958601b83611911565b915061196382611922565b602082019050919050565b600060208201905081810360008301526119878161194b565b9050919050565b7f4e487b7100000000000000000000000000000000000000000000000000000000600052602160045260246000fd5b600381106119ce576119cd61198e565b5b50565b60008190506119df826119bd565b919050565b60006119ef826119d1565b9050919050565b6119ff816119e4565b82525050565b6000602082019050611a1a60008301846119f6565b92915050565b6000819050919050565b611a3381611a20565b82525050565b6000602082019050611a4e6000830184611a2a565b92915050565b60008115159050919050565b611a6981611a54565b82525050565b6000602082019050611a846000830184611a60565b92915050565b600080fd5b600073ffffffffffffffffffffffffffffffffffffffff82169050919050565b6000611aba82611a8f565b9050919050565b611aca81611aaf565b8114611ad557600080fd5b50565b600081359050611ae781611ac1565b92915050565b600060208284031215611b0357611b02611a8a565b5b6000611b1184828501611ad8565b91505092915050565b611b2381611aaf565b82525050565b6000602082019050611b3e6000830184611b1a565b92915050565b7f49434f3a206e6f7420696e697469616c697a6564000000000000000000000000600082015250565b6000611b7a601483611911565b9150611b8582611b44565b602082019050919050565b60006020820190508181036000830152611ba981611b6d565b9050919050565b7f49434f3a206e6f74206f70656e20706861736500000000000000000000000000600082015250565b6000611be6601383611911565b9150611bf182611bb0565b602082019050919050565b60006020820190508181036000830152611c1581611bd9565b9050919050565b7f49434f3a206164647265737320686173206e6f20636f6e747269627574696f6e60008201527f7300000000000000000000000000000000000000000000000000000000000000602082015250565b6000611c78602183611911565b9150611c8382611c1c565b604082019050919050565b60006020820190508181036000830152611ca781611c6b565b9050919050565b7f4e487b7100000000000000000000000000000000000000000000000000000000600052601160045260246000fd5b6000611ce882611a20565b9150611cf383611a20565b9250817fffffffffffffffffffffffffffffffffffffffffffffffffffffffffffffffff0483118215151615611d2c57611d2b611cae565b5b828202905092915050565b6000604082019050611d4c6000830185611b1a565b611d596020830184611a2a565b9392505050565b611d6981611a54565b8114611d7457600080fd5b50565b600081519050611d8681611d60565b92915050565b600060208284031215611da257611da1611a8a565b5b6000611db084828501611d77565b91505092915050565b7f49434f3a20746f6b656e7320636f756c64206e6f7420626520636c61696d6564600082015250565b6000611def602083611911565b9150611dfa82611db9565b602082019050919050565b60006020820190508181036000830152611e1e81611de2565b9050919050565b7f4f776e61626c653a2063616c6c6572206973206e6f7420746865206f776e6572600082015250565b6000611e5b602083611911565b9150611e6682611e25565b602082019050919050565b60006020820190508181036000830152611e8a81611e4e565b9050919050565b7f49434f3a2061646472657373206d7573742062652076616c6964000000000000600082015250565b6000611ec7601a83611911565b9150611ed282611e91565b602082019050919050565b60006020820190508181036000830152611ef681611eba565b9050919050565b7f49434f3a2070686173657320636f6d706c657465000000000000000000000000600082015250565b6000611f33601483611911565b9150611f3e82611efd565b602082019050919050565b60006020820190508181036000830152611f6281611f26565b9050919050565b6000611f7482611a20565b9150611f7f83611a20565b9250827fffffffffffffffffffffffffffffffffffffffffffffffffffffffffffffffff03821115611fb457611fb3611cae565b5b828201905092915050565b7f49434f3a207468652049434f2069732070617573656400000000000000000000600082015250565b6000611ff5601683611911565b915061200082611fbf565b602082019050919050565b6000602082019050818103600083015261202481611fe8565b9050919050565b7f49434f3a20706861736520636f6e747269627574696f6e732072656163686564600082015250565b6000612061602083611911565b915061206c8261202b565b602082019050919050565b6000602082019050818103600083015261209081612054565b9050919050565b7f49434f3a20636f6e747269627574696f6e206d6178696d756d2072656163686560008201527f6400000000000000000000000000000000000000000000000000000000000000602082015250565b60006120f3602183611911565b91506120fe82612097565b604082019050919050565b60006020820190508181036000830152612122816120e6565b9050919050565b7f49434f3a2061646472657373206973206e6f7420617070726f76656400000000600082015250565b600061215f601c83611911565b915061216a82612129565b602082019050919050565b6000602082019050818103600083015261218e81612152565b9050919050565b60006121a082611a20565b91506121ab83611a20565b9250828210156121be576121bd611cae565b5b828203905092915050565b600081905092915050565b50565b60006121e46000836121c9565b91506121ef826121d4565b600082019050919050565b6000612205826121d7565b9150819050919050565b7f49434f3a206578636573732066756e6473207472616e73666572206661696c6560008201527f6400000000000000000000000000000000000000000000000000000000000000602082015250565b600061226b602183611911565b91506122768261220f565b604082019050919050565b6000602082019050818103600083015261229a8161225e565b9050919050565b7f4f776e61626c653a206e6577206f776e657220697320746865207a65726f206160008201527f6464726573730000000000000000000000000000000000000000000000000000602082015250565b60006122fd602683611911565b9150612308826122a1565b604082019050919050565b6000602082019050818103600083015261232c816122f0565b905091905056fea26469706673582212204b0ea0faa8ac80bb63c9d4cee97552bb22e15131e52cd3750c38d1778ec4180a64736f6c63430008090033",
  "linkReferences": {},
  "deployedLinkReferences": {}
}